:020000040800F2
:10000000D00C0020C90100082B1800088B14000830
:1000100029180008DD050008471F0008000000003F
:10002000000000000000000000000000591D000852
:10003000DF05000800000000571D0008F91D00083A
:10004000E3010008E3010008E3010008E301000800
:10005000E3010008E3010008E3010008E3010008F0
:10006000E3010008E3010008E3010008E3010008E0
:10007000E3010008E3010008E3010008E3010008D0
:10008000E3010008E3010008E3010008E3010008C0
:10009000E3010008E3010008E3010008E3010008B0
:1000A000E3010008E3010008E3010008E3010008A0
:1000B000591E0008E3010008E3010008E3010008FD
:1000C000E3010008E3010008E3010008E301000880
:1000D000E3010008E3010008E3010008E301000870
:1000E000E3010008E3010008E301000800F002F862
:1000F00000F05AF80AA090E8000C82448344AAF168
:100100000107DA4501D100F04FF8AFF2090EBAE865
:100110000F0013F0010F18BFFB1A43F0010318473B
:100120000C1401002C1401000A444FF0000C10F8CC
:10013000013B13F0070408BF10F8014B1D1108BF65
:1001400010F8015B641E05D010F8016B641E01F805
:10015000016BF9D113F0080F1EBF10F8014BAD1C55
:100160000C1B09D16D1E58BF01F801CBFAD505E073
:1001700014F8016B01F8016B6D1EF9D59142D6D3CD
:10018000704700000023002400250026103A28BFF5
:1001900078C1FBD8520728BF30C148BF0B607047F9
:1001A0001FB51FBD10B510BD00F067F91146FFF770
:1001B000F7FF01F0F3FE00F085F903B4FFF7F2FF5B
:1001C00003BC00F08DF9000009488047094800474A
:1001D000FEE7FEE7FEE7FEE7FEE7FEE7FEE7FEE7F7
:1001E000FEE7FEE704480549054A064B7047000054
:1001F000551E0008ED000008D0060020D00C00209D
:10020000D0080020D008002040EA010310B59B0769
:100210000FD1042A0DD310C808C9121F9C42F8D070
:1002200020BA19BA884201D9012010BD4FF0FF3021
:1002300010BD1AB1D30703D0521C07E0002010BD37
:1002400010F8013B11F8014B1B1B07D110F8013BC3
:1002500011F8014B1B1B01D1921EF1D1184610BDA4
:1002600010B5431C02E010F8011B71B18107FAD1EF
:100270004FF0013202C88C1A8C4314EAC211F9D033
:10028000C01A0A0603D0C01E10BDC01A10BD0A0451
:1002900001D0801E10BD0902FCD0401E10BD032AF3
:1002A00040F2308010F0030C00F0158011F8013B93
:1002B000BCF1020F624498BF11F801CB00F8013B7A
:1002C00038BF11F8013BA2F1040298BF00F801CB3E
:1002D00038BF00F8013B11F0030300F09C80083A9E
:1002E000C0F0088051F8043B083A51F804CBA0E86C
:1002F0000810F5E7121D5CBF51F8043B40F8043BC1
:10030000AFF30080D20724BF11F8013B11F801CBF5
:1003100048BF11F8012B24BF00F8013B00F801CBC6
:1003200048BF00F8012B70474FF000020429C0F0CD
:10033000128010F0030C00F01B80CCF1040CBCF117
:10034000020F18BF00F8012BA8BF20F8022BA1EB69
:100350000C0100F00DB85FEAC17C24BF00F8012B4E
:1003600000F8012B48BF00F8012B70474FF0000246
:1003700000B5134694469646203922BFA0E80C509B
:10038000A0E80C50B1F12001BFF4F7AF090728BF76
:10039000A0E80C5048BF0CC05DF804EB890028BFF2
:1003A00040F8042B08BF704748BF20F8022B11F01B
:1003B000804F18BF00F8012B704710B5044610F0AD
:1003C000030F08BF11F0030F40F015804FF0013EFE
:1003D000121FC0F20E8051F8043BA3EB0E0C2CEA66
:1003E000030C1CEACE1C08BF40F8043BF0D0A1F17E
:1003F000040102F10402521E08DB11F8013B002B3C
:1004000000F8013BF7D11146FFF78EFF204610BDE3
:1004100070477047704710B5203AC0F00B80B1E8C4
:100420001850203AA0E81850B1E81850A0E8185029
:10043000BFF4F5AF5FEA027C24BFB1E81850A0E832
:10044000185044BF18C918C0BDE810405FEA827C4C
:1004500024BF51F8043B40F8043B08BF7047D20763
:1004600028BF31F8023B48BF11F8012B28BF20F804
:10047000023B48BF00F8012B7047754600F02CF88E
:10048000AE4605006946534620F00700854618B081
:1004900020B5FFF7A7FEBDE820404FF000064FF063
:1004A00000074FF000084FF0000B21F00701AC46A9
:1004B000ACE8C009ACE8C009ACE8C009ACE8C009C8
:1004C0008D46704710B50446AFF300802046BDE866
:1004D0001040FFF772BE0000004870477006002011
:1004E00001491820ABBEFEE726000200704700005D
:1004F000F8B52B4E3078002845D0012847D0022887
:1005000049D003283ED100254FEA050401F0F2F955
:10051000244B25A214210020009401F003FA01F0DD
:1005200033FB01F0E7F91F4B20A2142100200094B7
:1005300001F0F8F901F028FB01F0DCF9194B1CA2DD
:1005400014210020009401F0EDF901F01DFB6D1C59
:100550000A2DDBDB01F0CEF9124B16A2142100208C
:10056000009401F0DFF90F4B16A22821002000941F
:1005700001F0D8F901F008FB4FF4FA6000F032F80E
:1005800004203070F8BDBDE8F84001F013BCBDE8B0
:10059000F84001F0E3BBBDE8F84001F0FBBB000010
:1005A00010000020382700082E0000002E2E00002A
:1005B0002E2E2E0048656C6C6F20576F726C642174
:1005C000000000002D2D2D2D2D2D2D2D2D2D2D2D0F
:1005D0002D2D2D2D2D2D2D2D00000000FEE7704717
:1005E00072B6FEE770B5044600F0FEF80546601CE2
:1005F00002D004480078044400F0F6F8401BA04202
:10060000FAD370BD000000202DE9F84FDFF8B89153
:100610000024A9F1040B23460F2709F1040AABF1CA
:10062000040EC9E00125A5402A40AA427DD1674EAB
:10063000D1F804C0ACEB0608B44532D014DCBCF1F0
:10064000030F3AD009DCBCF1000F2AD0BCF1010F36
:100650001CD0BCF1020F31D11DE0BCF1110F17D03D
:10066000BCF1120F2AD119E0B8F5881F19D006DCA9
:10067000B8F5803F15D0B8F5801F1FD111E0B8F54F
:10068000001F0ED0B8F5041F18D10AE0CB6815E0A2
:10069000CB681B1D12E0CB6808330FE0CB680C332E
:1006A0000CE08B682BB1012B4FF0080303D04561A0
:1006B00004E0042302E0056100E00023FF2A01D8E2
:1006C000064601E000F104064FEA840501D9A5F1D0
:1006D0002005D6F8008007FA05FC28EA0C0803FA82
:1006E00005F548EA0508C6F800804D68ED0062D5BA
:1006F000374DAE6946F00106AE61AD6924F00306E0
:1007000005F001050095334D06EB050CDCF80850AB
:10071000A607360F07FA06F825EA0805DFF8B880BD
:10072000404503D14FF0000817E044E0DFF8AC800B
:10073000404502D14FF001080FE0DFF8A4804045AA
:1007400002D14FF0020808E0DFF89880404502D15E
:100750004FF0030801E04FF0040808FA06F848EAF1
:100760000508CCF808804D68D9F80060ED024D46C8
:1007700001D5164300E096432E604D68DAF800601C
:10078000AD02554601D5164300E096432E604D68F4
:10079000DBF80060AD035D4601D5164300E09643EB
:1007A0002E604D68DEF80060ED03754601D51643F6
:1007B00000E096432E60641C0D682A46E5407FF4F5
:1007C00031AFBDE8F88F00000804014000001110AF
:1007D000001002400000014000080140000C0140F0
:1007E000001001400014014001488068704700007B
:1007F0000000002070B5040025D094F83D000025CD
:1008000020B984F83C50204600F04EF9242084F8AA
:100810003D002068016821F0010101602068016845
:1008200041F4004101602068016821F40041016049
:1008300000F096FA4D4A6168914201D84C4900E0B7
:100840004C49884201D2012070BD4B492368B0FB5E
:10085000F1F15E6826F03F060E435E6063689342E6
:1008600006D94FF4967359434FF47A73B1FBF3F101
:100870002368491C1E6A26F03F06314319626168ED
:10088000914210D84900401EB0FBF1F2521CC2F355
:100890000B02042A01D2042022E0B0FBF1F0401C3C
:1008A000C0F30B001CE0A268F2B301EBC10303EB41
:1008B0000116431EB3FBF6F35B1C43F480431B0598
:1008C00049D092B301EBC10202EB0111401EB0FB13
:1008D000F1F0401CC0F30B0040F4804040F40040B5
:1008E0002168CA694CF6FF739A431043C861D4E982
:1008F000071001432068026822F0C0021143016022
:10090000D4E9030101432068826848F2FF339A4327
:1009100011438160D4E9050108432168CA6822F0C7
:10092000FF021043C86001E00EE016E02068016895
:1009300041F0010101602564202084F83D00256319
:1009400084F83E50002070BD01EB4106431EB3FB0E
:10095000F6F35B1CB3E70120C2E701EB4101401E47
:10096000B0FBF1F0401CC0F30B00B7E7A08601001C
:1009700080841E0000093D0040420F002DE9F84F21
:100980001F4690468A460446DDF82890FFF72CFF64
:10099000054694F83D0020287FD1192301224049C3
:1009A0002046009500F004FE002876D194F83C0023
:1009B000012872D0012084F83C0020680168C90732
:1009C00003D1016841F0010101602068016821F450
:1009D00000610160212084F83D00102084F83E0071
:1009E00000262664C4F824806785608D20852D4804
:1009F000E0622B464A465146204600F05FFD90B922
:100A0000206841698069009036E02A4649462046C0
:100A100000F074FE50B1206C042804D120680168F5
:100A200041F4007101600120BDE8F88F606A21681F
:100A300000780861606A401C6062618D491E6185B2
:100A4000218D491E89B2218522685369DB435B07EA
:100A50000BD451B100781061606A401C6062608DF7
:100A6000401E6085208D401E20852A46494620462E
:100A700000F072FD0028CED1208D0028C5D154F899
:100A80003D0B016841F400710160202004F81E094B
:100A9000E67766770020C7E7FFE70220C4E700009B
:100AA000020010000000FFFF10B586B00021009189
:100AB00001910291039100680F4988421AD10F4CAD
:100AC000A06940F00800A061A069694600F0080034
:100AD0000490C02000901220019003200390084849
:100AE000FFF792FDE06940F40010E061E06900F476
:100AF0000010049006B010BD0054004000100240E9
:100B0000000C0140024881680278114481607047FE
:100B100000000020074810B5016841F01001016095
:100B2000032000F075F80F2000F006F800F024F81C
:100B3000002010BD0020024070B50D4D04464FF45A
:100B40007A712878B1FBF0F00A490968B1FBF0F03E
:100B500000F0D0FA48B9102C07D200222146501ECE
:100B600000F036F800206C6070BD012070BD000000
:100B7000000000200C0000200C4808B5816941F0FD
:100B800001018161816901F001010091C16941F0B8
:100B90008051C161C06900F08050009004484168F4
:100BA00021F0E06141F00071416008BD0010024099
:100BB00000000140002809DB00F01F0201219140E4
:100BC0004009800000F1E020C0F8001170470000EB
:100BD000F0B40E4B1B680C46C3F30223C3F10705A8
:100BE000042D00D90425191D072901D2002300E096
:100BF000DB1E012606FA05F1491E214099409E4060
:100C0000761E16403143F0BC01F0B7B90CED00E0A0
:100C1000064900F0070208684FF6FF03184040EA53
:100C20000220034A10430860704700000CED00E00A
:100C30000000FA052DE9F0470F46050061D0434E4C
:100C4000306800F00700B84209D2306820F0070091
:100C500038433060306800F00700B84251D128684E
:100C60003B4C810712D5400703D5606840F4E06033
:100C700060602878000703D5606840F460506060C9
:100C80006068A96820F0F000084360602878C00719
:100C900028D06868012810D02168022810D0890760
:100CA00000292EDA616821F0030101436160FFF73A
:100CB0009BFD804641F288390DE021688903EFE70A
:100CC0008901EDE7FFF790FDA0EB0801494502D946
:100CD0000320BDE8F0876068696800F00C00B0EBA5
:100CE000810FEFD1306800F00700B8420BD93068AF
:100CF00020F0070038433060306800F00700B84249
:100D000001D00120E5E72878400705D56068E9684B
:100D100020F4E060084360602878000706D560682A
:100D2000296920F4605040EAC100606000F028F8B2
:100D30006168084AC1F30311515CC8400649086064
:100D400006480068FFF7F8FE0020C2E700200240D6
:100D500000100240E21F00080C00002004000020E8
:100D60000448054900684968044AC1F30221515CFE
:100D7000C84070470C00002000100240F21F00081D
:100D80000E4A51680E4801F00C03042B11D0082BB9
:100D90000FD10C48C1F38343C903C05C0AD5516825
:100DA000084AC1F34041921E515C054A5043B0FBD2
:100DB000F1F07047044948437047000000100240BA
:100DC00000127A00D21F000800093D002DE9F84FFB
:100DD000040073D02078C24DC0074CF2503649D081
:100DE0006868C0F38100012807D06868C0F38100FB
:100DF000022809D16868C00306D52868800339D560
:100E000060680028E5D035E06068B0F5803F0BD021
:100E100010B1B0F5A02F11D0286820F480302860E0
:100E2000286820F4802002E0286840F480302860A0
:100E3000606890B1FFF7D8FC07460AE0286840F4E4
:100E400080202860F0E700BFFFF7CEFCC01BB04257
:100E500075D828688003F7D50CE0FFF7C5FC074676
:100E600005E000BFFFF7C0FCC01BB042F0D8286807
:100E70008003F7D42078DFF86C8280074FF0010AF6
:100E80004FF000093AD5686810F00C0F07D0686879
:100E9000C0F38100022809D16868C00306D428681D
:100EA000800715D52069012808D111E02069B8B163
:100EB000C8F800A0FFF798FC074606E00BE100BF6A
:100EC000FFF792FCC01B0228C2D828688007F7D51C
:100ED0002868616920F0F80040EAC10028600DE050
:100EE000C8F80090FFF780FC074604E0FFF77CFCA1
:100EF000C01B022823D828688007F7D42078000771
:100F00002CD57948A169D9B1C0F800A0FFF76CFCD5
:100F1000074604E0FFF768FCC01B02280FD8686A88
:100F20008007F7D571484FF4FA510068B0FBF1F033
:100F3000009000BF0098411E0091FAD20EE07DE0C3
:100F4000C0F80090FFF750FC074604E0FFF74CFCA8
:100F5000C01B022872D8686A8007F7D4207840073F
:100F60005CD5E8690027C00008D4E86940F08050EB
:100F7000E861E869012700F0805000905C48016852
:100F8000C90511D4016841F480710160FFF72CFCA0
:100F9000834605E0FFF728FCA0EB0B0064284DD842
:100FA00053480068C005F5D5E06801280AD008B1AB
:100FB000052811D0286A20F001002862286A20F054
:100FC000040002E0286A40F001002862E06898B15D
:100FD000FFF70AFC83460BE0286A40F00400286211
:100FE000F0E700BFFFF700FCA0EB0B00B0425ED8BB
:100FF000286A8007F6D50CE0FFF7F6FB834605E08C
:10100000FFF7F2FBA0EB0B00B04250D8286A800734
:10101000F6D41FB1E86920F08050E861E069A8B318
:101020006968C1F38101022948D00228484606D0E8
:10103000C8F86000FFF7D8FB04463BE037E04746BE
:10104000C8F86000FFF7D0FB064604E0FFF7CCFBD2
:10105000801B02282BD828688001F7D4206AB0F5BD
:10106000803F05D16868A16820F4003008436860BB
:10107000D4E908010843696821F4741108436860E1
:10108000C7F860A0FFF7B0FB044606E025E000BF0C
:10109000FFF7AAFB001B022809D828688001F7D5B2
:1010A0001BE000BFFFF7A0FB001B022802D90320B2
:1010B000BDE8F88F28688001F4D40EE00128F7D04D
:1010C0006868226A00F48031914204D1616A00F4B8
:1010D0007010884201D00120EAE70020E8E7000014
:1010E0000010024000004242800442420C000020F6
:1010F0000070004010B5401EB0F1807F01D3012088
:1011000010BD4FF0E02460610F21601700F035FF43
:101110000020A06107202061002010BD70477047AB
:1011200070B590F83C20012A26D0012480F83C407C
:10113000022280F83D2003685A689D6822F07006FC
:101140000A6832435A600D4B02689A4208D0B2F1E5
:10115000804F05D00A4B9A4202D00A4B9A4204D1E2
:10116000496825F080031943916080F83D400021D3
:1011700080F83C10084670BD022070BD002C014074
:10118000000400400008004010B5040003D094F8AB
:101190003D0010B107E0012010BD002084F83C00A4
:1011A000204600F01FF8022084F83D00211D206831
:1011B00000F058FE012084F8460084F83E0084F8D0
:1011C0003F0084F8400084F8410084F8420084F82D
:1011D000430084F8440084F8450084F83D00002072
:1011E00010BD000008B50068B0F1804F12D10A4868
:1011F000C16941F00101C161C069002200F0010034
:10120000009011461C20FFF7E3FCBDE808401C20BD
:10121000FFF7D0BC08BD00000010024090F83D1060
:10122000012901D001207047022180F83D1001689A
:10123000CA6842F00102CA6000680B49884208D0BF
:10124000B0F1804F05D00949884202D00849884250
:1012500004D1816801F00701062903D0016841F03B
:101260000101016000207047002C01400004004093
:101270000008004070B5044690F83C0000250128A5
:1012800017D0012684F83C60022084F83D002068D5
:10129000826822F0770222F47F4282600868502838
:1012A00038D00DDC20284FD005DC90B3102811D1A8
:1012B0004AE0022070BD302846D040280AD13BE0E9
:1012C00060282FD070280DD0B0F5805F03D0B0F526
:1012D000005F12D0012584F83D60002084F83C00B6
:1012E000284670BDCB68D1E90121206800F0F6FDE9
:1012F0002068816841F0770109E0CB68D1E90121DC
:10130000206800F0EBFD2068816841F48041816035
:10131000E1E719E0CA684968206800F0F1FD502152
:10132000206806E0CA684968206800F0FAFD60217C
:10133000206800F0DDFDCEE7CA684968206800F04B
:10134000DFFD40212068F4E7226801461046F0E7FF
:1013500070472DE9F04104460068C66805694FF002
:101360000007A90713D5B10711D5F91E01610120A6
:101370002077206880698007204602D0FFF7E8FFC9
:1013800004E000F07EF8204600F07CF8277768073C
:1013900016D5700714D521686FF00400086102208B
:1013A00020772068806910F4407F204602D0FFF744
:1013B000CFFF04E000F065F8204600F063F82777DF
:1013C000280715D5300713D521686FF0080008618C
:1013D000042020772068C0698007204602D0FFF7EC
:1013E000B7FF04E000F04DF8204600F04BF82777F7
:1013F000E80616D5F00614D521686FF010000861D4
:10140000082020772068C06910F4407F204602D071
:10141000FFF79EFF04E000F034F8204600F032F8B9
:101420002777E80708D0F00706D021686FF00100A1
:101430000861204600F027F8280608D5300606D5B2
:1014400021686FF0800008612046FFF767FE68069C
:1014500008D5700606D521686FF040000861204667
:1014600000F012F8A8060AD5B00608D521686FF07A
:10147000200008612046BDE8F041FFF750BEBDE8FE
:10148000F0817047704770477047FEE701684A690E
:10149000D24352050FD46FF480624A61002140F8B4
:1014A000301F202242738173026942F004020261FC
:1014B000017301207047002070470000F8B5044612
:1014C000C06A1E460D461746082807D0012805D0D9
:1014D00010F5803F02D0206B122804D120680168EB
:1014E00041F480710160134600224FF00111204643
:1014F000009600F05DF840B120680068C00502D594
:101500004FF4007020640320F8BD2069B0F5804FCF
:101510000ED00620216800EAD51040F0F0000861E6
:1015200033463A460B49204600F08AF878B902E083
:1015300005F0FE0000E0E8B2216808610549334685
:101540003A46891F204600F07BF80028DCD00120B5
:10155000F8BD00000800010070B516460D460446AF
:101560001EE02046FFF792FF08B1012070BD681C05
:1015700016D0FFF739F9801BA84200D885B920683A
:101580004069C04340070BD5002044F8300F2021AC
:101590006173A073216941F0200121612073E4E7A8
:1015A00020684069C0434007DBD4002070BD0000C4
:1015B0002DE9F047984617460D460446C1F3074605
:1015C000DDF820902AE000BFB8F1FF3F26D0FFF7FA
:1015D0000BF9A0EB0901414502D8B8F1000F1DD16C
:1015E0002068012E16D0806925EA00000004000C56
:1015F00012D00020B84211D1002044F8300F202131
:101600006173A073216941F02001216120730120E1
:10161000BDE8F0874069E7E70120EBE72068012E8D
:101620000AD0806925EA00000004000C06D00020E2
:10163000B842C9D00020EBE74069F3E70120F7E7A3
:101640002DE9F047984616460D4604464FF000092E
:101650004FF0200AC1F3074723E020684069C043E8
:10166000400515D42068016841F4007101602168CB
:101670006FF480604861C4F8309084F83DA084F82D
:101680003E90216C41F00401216484F83C9021E0FB
:10169000701C06D0FFF7A8F8A0EB0800B04203D8F2
:1016A00016B1012F1FD021E02068012F15D08069CD
:1016B00025EA00000004000C18D000BF44F8309F59
:1016C00084F80DA084F80E90216941F02001216179
:1016D00084F80C900120BDE8F087406925EA0000FD
:1016E0000004000CEAD12068406901E020688069AC
:1016F00025EA00000004000CAFD1ECE770B51646F7
:101700000D4604461EE02046FFF7C0FE08B101204A
:1017100070BD681C16D0FFF767F8801BA84200D880
:1017200085B920684069C04300060BD5002044F805
:10173000300F20216173A073216941F020012161E4
:101740002073E4E720684069C0430006DBD4002032
:1017500070BD0000094808B5816941F0040181614C
:10176000816901F004010091816941F00801816102
:10177000806900F00800009008BD000000100240E1
:101780000D4810B50B4901600C49416000214FF430
:1017900080428160C0E9031241618161C1610162DF
:1017A000FFF728F8002803D0BDE81040FEF718BF67
:1017B00010BD00000054004050010020A086010030
:1017C00010B586B000241748009401940294039445
:1017D00004944FF080410594016040F26711C0E924
:1017E000011440F2CF71C0E903148461FFF7CCFC0F
:1017F00008B1FEF7F5FE4FF48050009069460948A5
:10180000FFF738FD08B1FEF7EBFE049404A9054884
:101810000594FFF785FC002801D0FEF7E1FE06B035
:1018200010BD0000A4010020FEE7FEE71CB55478BF
:10183000CDE900431378526800F03EF91CBD10B5A5
:10184000AE2000F0D9F8202000F0D6F8102000F0EB
:10185000D3F8B02000F0D0F8C82000F0CDF8002078
:1018600000F0CAF8102000F0C7F8402000F0C4F8DB
:10187000812000F0C1F8DF2000F0BEF8A12000F0C8
:10188000BBF8A62000F0B8F8A82000F0B5F83F207B
:1018900000F0B2F8A42000F0AFF8D32000F0ACF8CC
:1018A000002000F0A9F8D52000F0A6F8F02000F004
:1018B000A3F8D92000F0A0F8222000F09DF8DA204B
:1018C00000F09AF8122000F097F8DB2000F094F86E
:1018D000202000F091F88D2000F08EF8142000F008
:1018E0008BF800F007F800F04FF9BDE81040AF208A
:1018F00000F082B84FF480610148FEF715BD00008A
:101900006D0200203CB51C78059D203ACDE90045CC
:101910005D68E41D5B78E408544303FB045200F067
:10192000CBF83CBD2DE9FF4F18785978C01DC00891
:1019300000254843001D83B01C46174600F0FF0AEF
:101940002AE07819814600F0FFFA5FEA000826D005
:1019500000260AE06168484606FB0A1B42465946D3
:10196000FEF752FCF0B1761CF6B2207AB042F1D804
:1019700010980090E368B8F1010F20D0DDE9030171
:101980002022FFF7BFFFE068417803980844C0B207
:10199000039005EB080085B2785D0028D1D107B02F
:1019A000BDE8F08F10992078CDE900016378DDE97A
:1019B00003010BF1040200F07FF86178E5E77A5D3E
:1019C000DDE90301FFF79EFFE0686D1CADB24178D1
:1019D00003980844C0B20390DEE7000008B54FF05A
:1019E000FF3200920B46024678210248FEF7C6FFFE
:1019F00008BD000050010020024948700221014842
:101A0000FFF7ECBF4E0100202DE9FC418046072086
:101A1000CDE9000301F00704CD08164602FA04F0F0
:101A20001F46C2B223464146284600F089F8002CE2
:101A30000CD0601EC0B2CDE90007C4F1080026FA40
:101A400000F2681C0023414600F07AF8BDE8FC81F2
:101A50002DE9FC4301F007061446CD08984681465F
:101A600001F0070106EB080204FA01F0099F082AB9
:101A700016D90721CDE90017C2B233464946284698
:101A800000F05EF808EB06000938C0B2CDE90007A7
:101A9000C6F1080024FA00F2681C0023494607E05A
:101AA000521ED1B2CDE90017C2B23346494628468C
:101AB00000F046F8BDE8FC832DE9FF4F82B01D46DB
:101AC0000F989346C70800F007008846002601904B
:101AD00018E0029800240BEB060A00EB06090DE063
:101AE00004FB05F0109B10F80A2008EBC400C1B2FB
:101AF00009F0FF00FFF788FF641CE4B2BC42EFD39B
:101B0000761CF6B2AE42E4D30198002815D005FB4E
:101B100007F6002408EBC7070DE010980090311974
:101B200002981BF801202044F9B2C0B2019BFFF7D4
:101B30008FFF641CE4B2AC42EFD306B0BDE8F08F77
:101B4000F0B50828DDE9056419D2802917D20CB157
:101B5000D243D2B2FF25761C05FA06F6C3F108037C
:101B6000084F46EA0204DD4007EBC017044B785CDF
:101B7000B2432C43AA4320401A7010437854F0BD5E
:101B80004C0100206D02002070B5104D4020002453
:101B9000287005F1810600BF04F1B000C0B2FFF764
:101BA0002BFF0020FFF728FF1020FFF725FF06EB93
:101BB000C4118022681CFEF772FB81210348FFF7E5
:101BC0000DFF641CE4B2082CE6D370BDEC010020CC
:101BD0001CB5B020FFF710FF0020FFF70DFF10200D
:101BE000FFF70AFF06A00223006801904FF0FF30C4
:101BF000009001AA78210348FEF7C0FE1CBD00003A
:101C000040AA0000500100202DE9FF4F91B00F467F
:101C100080469346402101A8FEF7A8FB5846FEF7F0
:101C20001FFB0124064600250DF104094FF07C0A34
:101C300018E02246594601A8FEF7BFFB09F80450F8
:101C400009EB040009F804A04570FFF753FE009566
:101C5000F9B208F0FF0001AA149BFFF763FEFFF73B
:101C600093FF641CB442E4DDFFF744FE0095F9B233
:101C700008F0FF005A46149BFFF754FEFFF784FF5D
:101C800015B0BDE8F08F00002DE9F84F0025124F88
:101C90009A46904689468346032600BFFFF72AFEF0
:101CA0005FF0000404EB85000B280FDACDF800A0EC
:101CB00057F82020D8F80C0043460178584604FB1A
:101CC000019100F00BF8641C042CEBDB6D1CB54299
:101CD000E4DBBDE8F88F0000180000202DE9F04794
:101CE00086B00E4607469A469146142101A8FEF793
:101CF0003DFB4846FEF7B4FA05464FF000081028B1
:101D000002DD1025012401E0012415E022464946A8
:101D100001A8FEF752FB01A97C2008552144F8B226
:101D200081F80180F1B2534601AACDF80080FFF797
:101D3000F9FDFFF729FF641CAC42E7DDF1B2F8B210
:101D400053464A46CDF80080FFF7ECFDFFF71CFF35
:101D500006B0BDE8F08770477047000008B5C8209E
:101D60000090054B05A214210020FFF74DFF084904
:101D70000220087008BD000038270008E4BDA0E577
:101D8000A5BDEFBC8CE7A88BE5BA8FE59198210043
:101D90001000002010B500213C23044A0846FFF73C
:101DA00073FF03490320087010BD000038270008A6
:101DB0001000002070B50F4C0D48616850F821509C
:101DC000FFF798FD00232A4619460520FFF72EFD50
:101DD000FFF7DAFE60684221401C90FBF1F201FB44
:101DE00012006060002801D10120207070BD000049
:101DF0004400002010000020FEF784BE30B58FB0F4
:101E000028216846FEF7B2FA14210AA8FEF7AEFAB6
:101E100002250120049000951020059000244FF425
:101E2000E010CDE9084007956846FEF7CFFF08B1FE
:101E300072B6FEE70F200A90CDE90B540D940121F4
:101E40000AA80E94FEF7F6FE002801D072B6FEE74F
:101E50000FB030BD704700000148FFF77ABA0000AC
:101E6000A4010020F0B50268194B1A4C1A4D4FF02E
:101E70008047984205D0B84203D0A04201D0A84282
:101E800003D122F070064A683243984205D0B84226
:101E900003D0A04201D0A84203D122F44074CA6802
:101EA00022434C6922F08002224302608A68C262A7
:101EB0000A688262984201D1096901630121416186
:101EC0000169C90703D0016921F001010161F0BD79
:101ED000002C0140000400400008004010B5846858
:101EE00042EA032224F47F440A432243826010BD65
:101EF000826822F070020A4342F007018160704755
:101F000010B5036A046A24F001040462846924F0B1
:101F1000F00444EA021423F00A020A4384610262D4
:101F200010BD10B5036A046A24F0100404628469C9
:101F300023F0A00324F4704444EA023243EA01117E
:101F40008261016210BDFEE70078010601D4012024
:101F500070470621B1EB501F01D1022070470E21BE
:101F6000B1EB101F01D1032070471E21B1EBD00F40
:101F700001D104207047002070470907090E00288E
:101F800004DB00F1E02080F80014704700F00F003F
:101F900000F1E02080F8141D70470000FEF7BAFD44
:101FA000FFF72CFFFFF7D6FBFFF7EAFBFFF708FC74
:101FB0000648FFF733F91420FEF714FBFFF73FFC48
:101FC000FFF706FEFEF794FAFCE70000A4010020EC
:101FD000010202030405060708090A0B0C0D0E0F87
:101FE00010100000000000000000010203040607BA
:101FF00008090000000001020304000000000000C6
:1020000000000000000000000000000000F80000D8
:102010000000000000333000000000100C06100C1F
:102020000600000000000000000040C07840C078BA
:102030004000043F04043F040400007088FC0830A2
:102040000000001820FF211E0000F008F000E0183A
:10205000000000211C031E211E0000F008887000F3
:1020600000001E2123241927211010160E00000045
:1020700000000000000000000000000000E0180464
:102080000200000000071820400000020418E000D1
:1020900000000040201807000000404080F0804011
:1020A00040000202010F01020200000000F00000E7
:1020B00000000101011F01010100000000000000FB
:1020C000000080B070000000000000000000000070
:1020D00000000001010101010101000000000000F9
:1020E00000000030300000000000000000008060B0
:1020F0001804006018060100000000E01008081035
:10210000E000000F102020100F00001010F8000059
:1021100000000020203F20200000007008080888F0
:1021200070000030282422213000003008888848C0
:1021300030000018202020110E000000C02010F8F0
:10214000000000070424243F240000F808888808C1
:1021500008000019212020110E0000E010888818C6
:102160000000000F112020110E0000380808C838A8
:1021700008000000003F0000000000708808088888
:102180007000001C222121221C0000E01008081011
:10219000E0000000312222110F00000000C0C0004A
:1021A000000000000030300000000000008000004F
:1021B000000000008060000000000000804020104F
:1021C0000800000102040810200040404040404048
:1021D00040000404040404040400000810204080AB
:1021E00000000020100804020100007048080808E0
:1021F000F0000000003036010000C030C828E810B0
:10220000E0000718272423140B000000C038E0006A
:102210000000203C23020227382008F888888870B4
:102220000000203F202020110E00C03008080808C0
:102230003800071820202010080008F808080810A7
:10224000E000203F202020100F0008F88888E808D0
:102250001000203F20202320180008F88888E80874
:102260001000203F200003000000C030080808389C
:10227000000007182020221E020008F808000008AD
:10228000F808203F210101213F20000808F8080834
:1022900000000020203F2020000000000808F8086F
:1022A0000800C08080807F00000008F888C02818DF
:1022B0000800203F20012638200008F80800000010
:1022C0000000203F20202020300008F8F800F8F817
:1022D0000800203F003F003F200008F830C0000801
:1022E000F808203F200007183F00E01008080810F9
:1022F000E0000F10202020100F0008F80808080840
:10230000F000203F210101010000E0100808081042
:10231000E0000F18242438504F0008F88888888877
:102320007000203F2000030C30200070880808084F
:1023300038000038202121221C00180808F808085D
:1023400018000000203F2000000008F808000008E6
:10235000F808001F202020201F000878880000C8EF
:102360003808000007380E010000F80800F80008DF
:10237000F800033C0700073C0300081868808068E9
:10238000180820302C03032C30200838C800C83827
:1023900008000000203F2000000010080808C8388E
:1023A00008002038262120201800000000FE02022C
:1023B00002000000007F40404000000C30C00000E0
:1023C0000000000000010638C00000020202FE000A
:1023D0000000004040407F000000000004020202B4
:1023E00004000000000000000000000000000000E9
:1023F00000008080808080808080000202040000D5
:1024000000000000000000000000000080808080CC
:1024100000000019242222223F2008F800808000BA
:102420000000003F112020110E000000008080807D
:102430000000000E11202020110000000080808884
:10244000F800000E112020103F20000080808080C6
:102450000000001F222222221300008080F08888C2
:1024600088180020203F202000000000808080800D
:102470008000006B94949493600008F80080808042
:102480000000203F210000203F200080989800009D
:1024900000000020203F20200000000000809898CD
:1024A000000000C08080807F000008F8000080806D
:1024B0008000203F24022D302000000808F8000092
:1024C00000000020203F202000008080808080804D
:1024D0008000203F20003F20003F808000808080DF
:1024E0000000203F210000203F20000080808080ED
:1024F0000000001F202020201F008080008080001E
:10250000000080FFA12020110E00000000808080CC
:102510008000000E112020A0FF808080800080803D
:10252000800020203F21200001000000808080806A
:1025300080000033242424241900008080E080805F
:1025400000000000001F20200000808000000080AC
:102550008000001F202020103F208080800000800D
:10256000808000010E30080601008080008000801D
:1025700080800F300C030C300F00008080008080C2
:1025800080000020312E0E312000808080000080ED
:10259000808080818E70180601000080808080809D
:1025A00080000021302C2221300000000000807CBF
:1025B000020200000000003F404000000000FF0059
:1025C000000000000000FF0000000002027C80000C
:1025D00000000040403F0000000000060101020230
:1025E00004040000000000000000000010080000CB
:1025F000FA1F0008E6B3A2001060020CC000F888C1
:102600008888FF8888A8180004047C0380601F80E5
:10261000432C102846818000E789B900403C10FF18
:102620001010404848487F48C8484000020602FF52
:10263000010100020A1242827F020200E5BE8B0005
:10264000001088C43310545454FF54547C101000AC
:10265000020100FF0010121212FF121212100000ED
:10266000E58AA8004044C4444444401010FF1010C0
:1026700010F00000103C131014B840300E014080E0
:10268000403F0000E4BDA000008060F80740201833
:102690000F08C80808281800010000FF00100C03EC
:1026A00040807F0001061800E5A5BD001010F01F56
:1026B00010F000808282E2928A8680004022150813
:1026C0001661000040807F0000000000E7A88B003A
:1026D0002424A4FCA222003E22222222223E000028
:1026E000080601FF008380898989FF898989800024
:1026F000E5BA8F000000FC04040414155694543409
:102700001404040040300F0001010141817F0101E8
:1027100001050300E59198000000C05E525252523C
:102720005252525EC000000000809F404020100FB7
:10273000101020205F80000010100000F425000819
:1027400009000000EC250008000000000000000067
:102750000000000000000000000000000000000079
:102760000000000000000000000000000000000069
:102770000000000000000000000000000000000059
:102780000000000000000000000000000000000049
:102790000000000000000000000000000000000039
:1027A0000000000000000000000000000000000029
:1027B0000000000000000000000000000000000019
:1027C0000000000000000000000000000000000009
:1027D00000000000000000000000000000000000F9
:1027E00000000000000000000000000000000000E9
:1027F00000000000000000000000000000000000D9
:1028000000000000000000000000000000000000C8
:1028100000000000000000000000000000000000B8
:1028200000000000000000000000000000000000A8
:102830000000000000000000000000000000000098
:102840000000000000000000000000000000000088
:10285000000000000000000000000000000000E098
:10286000E000000060F0F0E0000000000000000068
:102870000000000000000000000000000000000058
:102880000000000000000000000000000000000048
:102890000000000000000000000000000000000038
:1028A0000000000000000000000000000000000028
:1028B000000000000000000000000080E0F0381878
:1028C0001818181818181818181818181818181888
:1028D000181919181818181B1B1B1818181818186D
:1028E0001818181818181818181818181818183848
:1028F000F0E0800000000000000000000000000088
:1029000000000000000000000000000000000000C7
:1029100000000000000000000000000000000000B7
:102920000000000000000000000000000001070F90
:102930001C18181818181818181818181818181813
:102940001818181818181818181818181818181807
:1029500018181818181818181818181818181818F7
:10296000181C0F070100000000000000000000001C
:102970000000000000000000000000000000000057
:102980000000000000000000000000000000000047
:102990000000000000000000000000000000000037
:1029A0000000000000000000000000000000000027
:1029B0000000000000000000000000000000000017
:1029C0000000000000000000000000000000000007
:1029D00000000000000000000000000000000000F7
:1029E00000000000000000000000000000000000E7
:1029F00000000000000000000000000000000000D7
:102A000000000000000000000000000000000000C6
:102A100000000000000000000000000000000000B6
:102A200000000000000000000000000000000000A6
:102A30000000000000000000000000000000000096
:102A40000000000000000000000000000000000086
:102A50000000000000000000000000000000000076
:102A60000000000000000000000000000000000066
:102A70000000000000000000000000000000000056
:102A80000000000000000000000000000000000046
:102A90000000000000000000000000000000000036
:102AA0000000000000000000000000000000000026
:102AB0000000000000000000000000000000000016
:102AC0000000000000000000000000000000000006
:102AD00000000000000000007240000048270008CD
:102AE00000000000000000000000000000000000E6
:102AF00000000000000000000000000000000000D6
:102B000000000000000000000000000000000000C5
:102B100000000000000000000000000000000000B5
:102B200000000000000000000000000000000000A5
:102B30000000000000000000000000000000000095
:102B40000000000000000000000000000000000085
:102B50000000000000000000000000000000000075
:102B60000000000000000000000000000000000065
:102B70000000000000000000000000000000000055
:102B80000000000000000000000000000000000045
:102B90000000000000000000000000000000000035
:102BA0000000000000000000000000000000000025
:102BB0000000000000000000000000000000000015
:102BC0000000000000000000000000000000000005
:102BD00000000000000000000000000000000000F5
:102BE00000000000000000000000000000000000E5
:102BF00000000000000080E0E080000060F0F0E0F5
:102C000000000000000000000000000000000000C4
:102C100000000000000000000000000000000000B4
:102C200000000000000000000000000000000000A4
:102C30000000000000000000000000000000000094
:102C40000000000000000000000000000000000084
:102C500000000080E0F0F8F8F81818181818181894
:102C60001818181818181818181919181818181BDF
:102C70001B1B1818181818181818181818181818CE
:102C80001818181818181838F0E080000000000014
:102C90000000000000000000000000000000000034
:102CA0000000000000000000000000000000000024
:102CB0000000000000000000000000000000000014
:102CC000000000000001070F1F1F1F181818181818
:102CD0001818181818181818181818181818181874
:102CE0001818181818181818181818181818181864
:102CF0001818181818181818181C0F0701000000C9
:102D000000000000000000000000000000000000C3
:102D100000000000000000000000000000000000B3
:102D200000000000000000000000000000000000A3
:102D30000000000000000000000000000000000093
:102D40000000000000000000000000000000000083
:102D50000000000000000000000000000000000073
:102D60000000000000000000000000000000000063
:102D70000000000000000000000000000000000053
:102D80000000000000000000000000000000000043
:102D90000000000000000000000000000000000033
:102DA0000000000000000000000000000000000023
:102DB0000000000000000000000000000000000013
:102DC0000000000000000000000000000000000003
:102DD00000000000000000000000000000000000F3
:102DE00000000000000000000000000000000000E3
:102DF00000000000000000000000000000000000D3
:102E000000000000000000000000000000000000C2
:102E100000000000000000000000000000000000B2
:102E200000000000000000000000000000000000A2
:102E30000000000000000000000000000000000092
:102E40000000000000000000000000000000000082
:102E50000000000000000000000000000000000072
:102E60000000000000000000000000000000000062
:102E700072400000E02A000800000000000000008E
:102E80000000000000000000000000000000000042
:102E90000000000000000000000000000000000032
:102EA0000000000000000000000000000000000022
:102EB0000000000000000000000000000000000012
:102EC0000000000000000000000000000000000002
:102ED00000000000000000000000000000000000F2
:102EE00000000000000000000000000000000000E2
:102EF00000000000000000000000000000000000D2
:102F000000000000000000000000000000000000C1
:102F100000000000000000000000000000000000B1
:102F200000000000000000000000000000000000A1
:102F30000000000000000000000000000000000091
:102F40000000000000000000000000000000000081
:102F50000000000000000000000000000000000071
:102F60000000000000000000000000000000000061
:102F70000000000000000000000000000000000051
:102F8000000000000000000000000000000000E061
:102F9000C0E0C00060F0F0E00000000000000000B1
:102FA0000000000000000000000000000000000021
:102FB0000000000000000000000000000000000011
:102FC0000000000000000000000000000000000001
:102FD00000000000000000000000000000000000F1
:102FE000000000000000000000000080E0F0F8F8A1
:102FF000F8F8381818181818181818181818181871
:10300000181919191918181B1B1B18181818181833
:103010001818181818181818181818181818183810
:10302000F0E0800000000000000000000000000050
:103030000000000000000000000000000000000090
:103040000000000000000000000000000000000080
:103050000000000000000000000000000001070F59
:103060001F1F1F1F1C1818181818181818181818C0
:1030700018181818181818181818181818181818D0
:1030800018181818181818181818181818181818C0
:10309000181C0F07010000000000000000000000E5
:1030A0000000000000000000000000000000000020
:1030B0000000000000000000000000000000000010
:1030C0000000000000000000000000000000000000
:1030D00000000000000000000000000000000000F0
:1030E00000000000000000000000000000000000E0
:1030F00000000000000000000000000000000000D0
:1031000000000000000000000000000000000000BF
:1031100000000000000000000000000000000000AF
:10312000000000000000000000000000000000009F
:10313000000000000000000000000000000000008F
:10314000000000000000000000000000000000007F
:10315000000000000000000000000000000000006F
:10316000000000000000000000000000000000005F
:10317000000000000000000000000000000000004F
:10318000000000000000000000000000000000003F
:10319000000000000000000000000000000000002F
:1031A000000000000000000000000000000000001F
:1031B000000000000000000000000000000000000F
:1031C00000000000000000000000000000000000FF
:1031D00000000000000000000000000000000000EF
:1031E00000000000000000000000000000000000DF
:1031F00000000000000000000000000000000000CF
:10320000000000000000000072400000782E00085E
:1032100000000000000000000000000000000000AE
:10322000000000000000000000000000000000009E
:10323000000000000000000000000000000000008E
:10324000000000000000000000000000000000007E
:10325000000000000000000000000000000000006E
:10326000000000000000000000000000000000005E
:10327000000000000000000000000000000000004E
:10328000000000000000000000000000000000003E
:10329000000000000000000000000000000000002E
:1032A000000000000000000000000000000000001E
:1032B000000000000000000000000000000000000E
:1032C00000000000000000000000000000000000FE
:1032D00000000000000000000000000000000000EE
:1032E00000000000000000000000000000000000DE
:1032F00000000000000000000000000000000000CE
:1033000000000000000000000000000000000000BD
:1033100000000000000000000000000000000000AD
:1033200000000000000000E0C0E0C00060F0F0E03D
:10333000000000000000000000000000000000008D
:10334000000000000000000000000000000000007D
:10335000000000000000000000000000000000006D
:10336000000000000000000000000000000000005D
:10337000000000000000000000000000000000004D
:1033800000000080E0F0F8F8F8F8F8F818181818BD
:103390001818181818181818181919191918181BA6
:1033A0001B1B181818181818181818181818181897
:1033B0001818181818181838F0E0800000000000DD
:1033C00000000000000000000000000000000000FD
:1033D00000000000000000000000000000000000ED
:1033E00000000000000000000000000000000000DD
:1033F000000000000001070F1F1F1F1F1F1F1818CC
:10340000181818181818181818181818181818183C
:10341000181818181818181818181818181818182C
:103420001818181818181818181C0F070100000091
:10343000000000000000000000000000000000008C
:10344000000000000000000000000000000000007C
:10345000000000000000000000000000000000006C
:10346000000000000000000000000000000000005C
:10347000000000000000000000000000000000004C
:10348000000000000000000000000000000000003C
:10349000000000000000000000000000000000002C
:1034A000000000000000000000000000000000001C
:1034B000000000000000000000000000000000000C
:1034C00000000000000000000000000000000000FC
:1034D00000000000000000000000000000000000EC
:1034E00000000000000000000000000000000000DC
:1034F00000000000000000000000000000000000CC
:1035000000000000000000000000000000000000BB
:1035100000000000000000000000000000000000AB
:10352000000000000000000000000000000000009B
:10353000000000000000000000000000000000008B
:10354000000000000000000000000000000000007B
:10355000000000000000000000000000000000006B
:10356000000000000000000000000000000000005B
:10357000000000000000000000000000000000004B
:10358000000000000000000000000000000000003B
:10359000000000000000000000000000000000002B
:1035A000724000001032000800000000000000001F
:1035B000000000000000000000000000000000000B
:1035C00000000000000000000000000000000000FB
:1035D00000000000000000000000000000000000EB
:1035E00000000000000000000000000000000000DB
:1035F00000000000000000000000000000000000CB
:1036000000000000000000000000000000000000BA
:1036100000000000000000000000000000000000AA
:10362000000000000000000000000000000000009A
:10363000000000000000000000000000000000008A
:10364000000000000000000000000000000000007A
:10365000000000000000000000000000000000006A
:10366000000000000000000000000000000000005A
:10367000000000000000000000000000000000004A
:10368000000000000000000000000000000000003A
:10369000000000000000000000000000000000002A
:1036A000000000000000000000000000000000001A
:1036B000000000000000000000000000000000E02A
:1036C000C0E0C00060F0F0E000000000000000007A
:1036D00000000000000000000000000000000000EA
:1036E00000000000000000000000000000000000DA
:1036F00000000000000000000000000000000000CA
:1037000000000000000000000000000000000000B9
:10371000000000000000000000000080E0F0F8F869
:10372000F8F8F8F8F81818181818181818181818B9
:10373000181919191918181B1B1B181818181818FC
:1037400018181818181818181818181818181838D9
:10375000F0E0800000000000000000000000000019
:103760000000000000000000000000000000000059
:103770000000000000000000000000000000000049
:103780000000000000000000000000000001070F22
:103790001F1F1F1F1F1F1F18181818181818181878
:1037A0001818181818181818181818181818181899
:1037B0001818181818181818181818181818181889
:1037C000181C0F07010000000000000000000000AE
:1037D00000000000000000000000000000000000E9
:1037E00000000000000000000000000000000000D9
:1037F00000000000000000000000000000000000C9
:1038000000000000000000000000000000000000B8
:1038100000000000000000000000000000000000A8
:103820000000000000000000000000000000000098
:103830000000000000000000000000000000000088
:103840000000000000000000000000000000000078
:103850000000000000000000000000000000000068
:103860000000000000000000000000000000000058
:103870000000000000000000000000000000000048
:103880000000000000000000000000000000000038
:103890000000000000000000000000000000000028
:1038A0000000000000000000000000000000000018
:1038B0000000000000000000000000000000000008
:1038C00000000000000000000000000000000000F8
:1038D00000000000000000000000000000000000E8
:1038E00000000000000000000000000000000000D8
:1038F00000000000000000000000000000000000C8
:1039000000000000000000000000000000000000B7
:1039100000000000000000000000000000000000A7
:103920000000000000000000000000000000000097
:10393000000000000000000072400000A8350008F0
:103940000000000000000000000000000000000077
:103950000000000000000000000000000000000067
:103960000000000000000000000000000000000057
:103970000000000000000000000000000000000047
:103980000000000000000000000000000000000037
:103990000000000000000000000000000000000027
:1039A0000000000000000000000000000000000017
:1039B0000000000000000000000000000000000007
:1039C00000000000000000000000000000000000F7
:1039D00000000000000000000000000000000000E7
:1039E00000000000000000000000000000000000D7
:1039F00000000000000000000000000000000000C7
:103A000000000000000000000000000000000000B6
:103A100000000000000000000000000000000000A6
:103A20000000000000000000000000000000000096
:103A30000000000000000000000000000000000086
:103A40000000000000000000000000000000000076
:103A500000000000000000E0E0E0E00060F0F0E0C6
:103A60000000000000000000000000000000000056
:103A70000000000000000000000000000000000046
:103A80000000000000000000000000000000000036
:103A90000000000000000000000000000000000026
:103AA0000000000000000000000000000000000016
:103AB00000000080E0F0F8F8F8F8F8F8F8F81818C6
:103AC0001818181818181818181919191818181B70
:103AD0001B1B181818181818181818181818181860
:103AE0001818181818181838F0E0800000000000A6
:103AF00000000000000000000000000000000000C6
:103B000000000000000000000000000000000000B5
:103B100000000000000000000000000000000000A5
:103B2000000000000001070F1F1F1F1F1F1F1F1F86
:103B30001818181818181818181818181818181805
:103B400018181818181818181818181818181818F5
:103B50001818181818181818181C0F07010000005A
:103B60000000000000000000000000000000000055
:103B70000000000000000000000000000000000045
:103B80000000000000000000000000000000000035
:103B90000000000000000000000000000000000025
:103BA0000000000000000000000000000000000015
:103BB0000000000000000000000000000000000005
:103BC00000000000000000000000000000000000F5
:103BD00000000000000000000000000000000000E5
:103BE00000000000000000000000000000000000D5
:103BF00000000000000000000000000000000000C5
:103C000000000000000000000000000000000000B4
:103C100000000000000000000000000000000000A4
:103C20000000000000000000000000000000000094
:103C30000000000000000000000000000000000084
:103C40000000000000000000000000000000000074
:103C50000000000000000000000000000000000064
:103C60000000000000000000000000000000000054
:103C70000000000000000000000000000000000044
:103C80000000000000000000000000000000000034
:103C90000000000000000000000000000000000024
:103CA0000000000000000000000000000000000014
:103CB0000000000000000000000000000000000004
:103CC00000000000000000000000000000000000F4
:103CD00072400000403900080000000000000000B1
:103CE00000000000000000000000000000000000D4
:103CF00000000000000000000000000000000000C4
:103D000000000000000000000000000000000000B3
:103D100000000000000000000000000000000000A3
:103D20000000000000000000000000000000000093
:103D30000000000000000000000000000000000083
:103D40000000000000000000000000000000000073
:103D50000000000000000000000000000000000063
:103D60000000000000000000000000000000000053
:103D70000000000000000000000000000000000043
:103D80000000000000000000000000000000000033
:103D90000000000000000000000000000000000023
:103DA0000000000000000000000000000000000013
:103DB0000000000000000000000000000000000003
:103DC00000000000000000000000000000000000F3
:103DD00000000000000000000000000000000000E3
:103DE000000000000000000000000000000000E0F3
:103DF000E0E0C00060F0F0E0000000000000000023
:103E000000000000000000000000000000000000B2
:103E100000000000000000000000000000000000A2
:103E20000000000000000000000000000000000092
:103E30000000000000000000000000000000000082
:103E4000000000000000000000000080E0F0F8F832
:103E5000F8F8F8F8F8F8F8F81818181818181818E2
:103E6000181919191918181B1B1B181818181818C5
:103E700018181818181818181818181818181838A2
:103E8000F0E08000000000000000000000000000E2
:103E90000000000000000000000000000000000022
:103EA0000000000000000000000000000000000012
:103EB0000000000000000000000000000001070FEB
:103EC0001F1F1F1F1F1F1F1F1F1F1818181818182C
:103ED0001818181818181818181818181818181862
:103EE0001818181818181818181818181818181852
:103EF000181C0F0701000000000000000000000077
:103F000000000000000000000000000000000000B1
:103F100000000000000000000000000000000000A1
:103F20000000000000000000000000000000000091
:103F30000000000000000000000000000000000081
:103F40000000000000000000000000000000000071
:103F50000000000000000000000000000000000061
:103F60000000000000000000000000000000000051
:103F70000000000000000000000000000000000041
:103F80000000000000000000000000000000000031
:103F90000000000000000000000000000000000021
:103FA0000000000000000000000000000000000011
:103FB0000000000000000000000000000000000001
:103FC00000000000000000000000000000000000F1
:103FD00000000000000000000000000000000000E1
:103FE00000000000000000000000000000000000D1
:103FF00000000000000000000000000000000000C1
:1040000000000000000000000000000000000000B0
:1040100000000000000000000000000000000000A0
:104020000000000000000000000000000000000090
:104030000000000000000000000000000000000080
:104040000000000000000000000000000000000070
:104050000000000000000000000000000000000060
:10406000000000000000000072400000D83C000882
:104070000000000000000000000000000000000040
:104080000000000000000000000000000000000030
:104090000000000000000000000000000000000020
:1040A0000000000000000000000000000000000010
:1040B0000000000000000000000000000000000000
:1040C00000000000000000000000000000000000F0
:1040D00000000000000000000000000000000000E0
:1040E00000000000000000000000000000000000D0
:1040F00000000000000000000000000000000000C0
:1041000000000000000000000000000000000000AF
:10411000000000000000000000000000000000009F
:10412000000000000000000000000000000000008F
:10413000000000000000000000000000000000007F
:10414000000000000000000000000000000000006F
:10415000000000000000000000000000000000005F
:10416000000000000000000000000000000000004F
:10417000000000000000000000000000000000003F
:1041800000000000000000E0E0E0C00060F0F0E0AF
:10419000000000000000000000000000000000001F
:1041A000000000000000000000000000000000000F
:1041B00000000000000000000000000000000000FF
:1041C00000000000000000000000000000000000EF
:1041D00000000000000000000000000000000000DF
:1041E00000000080E0F0F8F8F8F8F8F8F8F8F8F8CF
:1041F000F8F8181818181818181919191918181B78
:104200001B1B181818181818181818181818181828
:104210001818181818181838F0E08000000000006E
:10422000000000000000000000000000000000008E
:10423000000000000000000000000000000000007E
:10424000000000000000000000000000000000006E
:10425000000000000001070F1F1F1F1F1F1F1F1F4F
:104260001F1F1F1F181818181818181818181818B2
:1042700018181818181818181818181818181818BE
:104280001818181818181818181C0F070100000023
:10429000000000000000000000000000000000001E
:1042A000000000000000000000000000000000000E
:1042B00000000000000000000000000000000000FE
:1042C00000000000000000000000000000000000EE
:1042D00000000000000000000000000000000000DE
:1042E00000000000000000000000000000000000CE
:1042F00000000000000000000000000000000000BE
:1043000000000000000000000000000000000000AD
:10431000000000000000000000000000000000009D
:10432000000000000000000000000000000000008D
:10433000000000000000000000000000000000007D
:10434000000000000000000000000000000000006D
:10435000000000000000000000000000000000005D
:10436000000000000000000000000000000000004D
:10437000000000000000000000000000000000003D
:10438000000000000000000000000000000000002D
:10439000000000000000000000000000000000001D
:1043A000000000000000000000000000000000000D
:1043B00000000000000000000000000000000000FD
:1043C00000000000000000000000000000000000ED
:1043D00000000000000000000000000000000000DD
:1043E00000000000000000000000000000000000CD
:1043F00000000000000000000000000000000000BD
:104400007240000070400008000000000000000042
:10441000000000000000000000000000000000009C
:10442000000000000000000000000000000000008C
:10443000000000000000000000000000000000007C
:10444000000000000000000000000000000000006C
:10445000000000000000000000000000000000005C
:10446000000000000000000000000000000000004C
:10447000000000000000000000000000000000003C
:10448000000000000000000000000000000000002C
:10449000000000000000000000000000000000001C
:1044A000000000000000000000000000000000000C
:1044B00000000000000000000000000000000000FC
:1044C00000000000000000000000000000000000EC
:1044D00000000000000000000000000000000000DC
:1044E00000000000000000000000000000000000CC
:1044F00000000000000000000000000000000000BC
:1045000000000000000000000000000000000000AB
:10451000000000000000000000000000000000E0BB
:10452000E0E0C00060F0F0E00000000000000000EB
:10453000000000000000000000000000000000007B
:10454000000000000000000000000000000000006B
:10455000000000000000000000000000000000005B
:10456000000000000000000000000000000000004B
:10457000000000000000000000000080E0F0F8F8FB
:10458000F8F8F8F8F8F8F8F8F8F8381818181818CB
:10459000181919191918181B1B1B1818181818188E
:1045A000181818181818181818181818181818386B
:1045B000F0E08000000000000000000000000000AB
:1045C00000000000000000000000000000000000EB
:1045D00000000000000000000000000000000000DB
:1045E0000000000000000000000000000001070FB4
:1045F0001F1F1F1F1F1F1F1F1F1F1F1F18181818E7
:10460000181818181818181818181818181818182A
:10461000181818181818181818181818181818181A
:10462000181C0F070100000000000000000000003F
:10463000000000000000000000000000000000007A
:10464000000000000000000000000000000000006A
:10465000000000000000000000000000000000005A
:10466000000000000000000000000000000000004A
:10467000000000000000000000000000000000003A
:10468000000000000000000000000000000000002A
:10469000000000000000000000000000000000001A
:1046A000000000000000000000000000000000000A
:1046B00000000000000000000000000000000000FA
:1046C00000000000000000000000000000000000EA
:1046D00000000000000000000000000000000000DA
:1046E00000000000000000000000000000000000CA
:1046F00000000000000000000000000000000000BA
:1047000000000000000000000000000000000000A9
:104710000000000000000000000000000000000099
:104720000000000000000000000000000000000089
:104730000000000000000000000000000000000079
:104740000000000000000000000000000000000069
:104750000000000000000000000000000000000059
:104760000000000000000000000000000000000049
:104770000000000000000000000000000000000039
:104780000000000000000000000000000000000029
:104790000000000000000000724000000844000813
:1047A0000000000000000000000000000000000009
:1047B00000000000000000000000000000000000F9
:1047C00000000000000000000000000000000000E9
:1047D00000000000000000000000000000000000D9
:1047E00000000000000000000000000000000000C9
:1047F00000000000000000000000000000000000B9
:1048000000000000000000000000000000000000A8
:104810000000000000000000000000000000000098
:104820000000000000000000000000000000000088
:104830000000000000000000000000000000000078
:104840000000000000000000000000000000000068
:104850000000000000000000000000000000000058
:104860000000000000000000000000000000000048
:104870000000000000000000000000000000000038
:104880000000000000000000000000000000000028
:104890000000000000000000000000000000000018
:1048A0000000000000000000000000000000000008
:1048B00000000000000000E0E0E0E00060F0F0E058
:1048C00000000000000000000000000000000000E8
:1048D00000000000000000000000000000000000D8
:1048E00000000000000000000000000000000000C8
:1048F00000000000000000000000000000000000B8
:1049000000000000000000000000000000000000A7
:1049100000000080E0F0F8F8F8F8F8F8F8F8F8F897
:10492000F8F8F8F818181818181919191818181B81
:104930001B1B1818181818181818181818181818F1
:104940001818181818181838F0E080000000000037
:104950000000000000000000000000000000000057
:104960000000000000000000000000000000000047
:104970000000000000000000000000000000000037
:10498000000000000001070F1F1F1F1F1F1F1F1F18
:104990001F1F1F1F1F1F181818181818181818186D
:1049A0001818181818181818181818181818181887
:1049B0001818181818181818181C0F0701000000EC
:1049C00000000000000000000000000000000000E7
:1049D00000000000000000000000000000000000D7
:1049E00000000000000000000000000000000000C7
:1049F00000000000000000000000000000000000B7
:104A000000000000000000000000000000000000A6
:104A10000000000000000000000000000000000096
:104A20000000000000000000000000000000000086
:104A30000000000000000000000000000000000076
:104A40000000000000000000000000000000000066
:104A50000000000000000000000000000000000056
:104A60000000000000000000000000000000000046
:104A70000000000000000000000000000000000036
:104A80000000000000000000000000000000000026
:104A90000000000000000000000000000000000016
:104AA0000000000000000000000000000000000006
:104AB00000000000000000000000000000000000F6
:104AC00000000000000000000000000000000000E6
:104AD00000000000000000000000000000000000D6
:104AE00000000000000000000000000000000000C6
:104AF00000000000000000000000000000000000B6
:104B000000000000000000000000000000000000A5
:104B10000000000000000000000000000000000095
:104B20000000000000000000000000000000000085
:104B300072400000A04700080000000000000000D4
:104B40000000000000000000000000000000000065
:104B50000000000000000000000000000000000055
:104B60000000000000000000000000000000000045
:104B70000000000000000000000000000000000035
:104B80000000000000000000000000000000000025
:104B90000000000000000000000000000000000015
:104BA0000000000000000000000000000000000005
:104BB00000000000000000000000000000000000F5
:104BC00000000000000000000000000000000000E5
:104BD00000000000000000000000000000000000D5
:104BE00000000000000000000000000000000000C5
:104BF00000000000000000000000000000000000B5
:104C000000000000000000000000000000000000A4
:104C10000000000000000000000000000000000094
:104C20000000000000000000000000000000000084
:104C30000000000000000000000000000000000074
:104C4000000000000000000000000000000000E084
:104C5000E0E0C00060F0F0E00000000000000000B4
:104C60000000000000000000000000000000000044
:104C70000000000000000000000000000000000034
:104C80000000000000000000000000000000000024
:104C90000000000000000000000000000000000014
:104CA000000000000000000000000080E0F0F8F8C4
:104CB000F8F8F8F8F8F8F8F8F8F8F8F8F8F8181834
:104CC000181919191918181B1B1B18181818181857
:104CD0001818181818181818181818181818183834
:104CE000F0E0800000000000000000000000000074
:104CF00000000000000000000000000000000000B4
:104D000000000000000000000000000000000000A3
:104D10000000000000000000000000000001070F7C
:104D20001F1F1F1F1F1F1F1F1F1F1F1F1F1F1F1F93
:104D300018181818181818181818181818181818F3
:104D400018181818181818181818181818181818E3
:104D5000181C0F0701000000000000000000000008
:104D60000000000000000000000000000000000043
:104D70000000000000000000000000000000000033
:104D80000000000000000000000000000000000023
:104D90000000000000000000000000000000000013
:104DA0000000000000000000000000000000000003
:104DB00000000000000000000000000000000000F3
:104DC00000000000000000000000000000000000E3
:104DD00000000000000000000000000000000000D3
:104DE00000000000000000000000000000000000C3
:104DF00000000000000000000000000000000000B3
:104E000000000000000000000000000000000000A2
:104E10000000000000000000000000000000000092
:104E20000000000000000000000000000000000082
:104E30000000000000000000000000000000000072
:104E40000000000000000000000000000000000062
:104E50000000000000000000000000000000000052
:104E60000000000000000000000000000000000042
:104E70000000000000000000000000000000000032
:104E80000000000000000000000000000000000022
:104E90000000000000000000000000000000000012
:104EA0000000000000000000000000000000000002
:104EB00000000000000000000000000000000000F2
:104EC000000000000000000072400000384B0008A5
:104ED00000000000000000000000000000000000D2
:104EE00000000000000000000000000000000000C2
:104EF00000000000000000000000000000000000B2
:104F000000000000000000000000000000000000A1
:104F10000000000000000000000000000000000091
:104F20000000000000000000000000000000000081
:104F30000000000000000000000000000000000071
:104F40000000000000000000000000000000000061
:104F50000000000000000000000000000000000051
:104F60000000000000000000000000000000000041
:104F70000000000000000000000000000000000031
:104F80000000000000000000000000000000000021
:104F90000000000000000000000000000000000011
:104FA0000000000000000000000000000000000001
:104FB00000000000000000000000000000000000F1
:104FC00000000000000000000000000000000000E1
:104FD00000000000000000000000000000000000D1
:104FE00000000000000000E0E0E0C00060F0F0E041
:104FF00000000000000000000000000000000000B1
:1050000000000000000000000000000000000000A0
:105010000000000000000000000000000000000090
:105020000000000000000000000000000000000080
:105030000000000000000000000000000000000070
:1050400000000080E0F0F8F8F8F8F8F8F8F8F8F860
:10505000F8F8F8F8F8F83818181919191818181B6A
:105060001B1B1818181818181818181818181818BA
:105070001818181818181838F0E080000000000000
:105080000000000000000000000000000000000020
:105090000000000000000000000000000000000010
:1050A0000000000000000000000000000000000000
:1050B000000000000001070F1F1F1F1F1F1F1F1FE1
:1050C0001F1F1F1F1F1F1F1F1C1818181818181824
:1050D0001818181818181818181818181818181850
:1050E0001818181818181818181C0F0701000000B5
:1050F00000000000000000000000000000000000B0
:10510000000000000000000000000000000000009F
:10511000000000000000000000000000000000008F
:10512000000000000000000000000000000000007F
:10513000000000000000000000000000000000006F
:10514000000000000000000000000000000000005F
:10515000000000000000000000000000000000004F
:10516000000000000000000000000000000000003F
:10517000000000000000000000000000000000002F
:10518000000000000000000000000000000000001F
:10519000000000000000000000000000000000000F
:1051A00000000000000000000000000000000000FF
:1051B00000000000000000000000000000000000EF
:1051C00000000000000000000000000000000000DF
:1051D00000000000000000000000000000000000CF
:1051E00000000000000000000000000000000000BF
:1051F00000000000000000000000000000000000AF
:10520000000000000000000000000000000000009E
:10521000000000000000000000000000000000008E
:10522000000000000000000000000000000000007E
:10523000000000000000000000000000000000006E
:10524000000000000000000000000000000000005E
:10525000000000000000000000000000000000004E
:1052600072400000D04E0008000000000000000066
:10527000000000000000000000000000000000002E
:10528000000000000000000000000000000000001E
:10529000000000000000000000000000000000000E
:1052A00000000000000000000000000000000000FE
:1052B00000000000000000000000000000000000EE
:1052C00000000000000000000000000000000000DE
:1052D00000000000000000000000000000000000CE
:1052E00000000000000000000000000000000000BE
:1052F00000000000000000000000000000000000AE
:10530000000000000000000000000000000000009D
:10531000000000000000000000000000000000008D
:10532000000000000000000000000000000000007D
:10533000000000000000000000000000000000006D
:10534000000000000000000000000000000000005D
:10535000000000000000000000000000000000004D
:10536000000000000000000000000000000000003D
:10537000000000000000000000000000000000E04D
:10538000E0E0C00060F0F0E000000000000000007D
:10539000000000000000000000000000000000000D
:1053A00000000000000000000000000000000000FD
:1053B00000000000000000000000000000000000ED
:1053C00000000000000000000000000000000000DD
:1053D000000000000000000000000080E0F0F8F88D
:1053E000F8F8F8F8F8F8F8F8F8F8F8F8F8F8F8181D
:1053F000181919191918181B1B1B18181818181820
:1054000018181818181818181818181818181838FC
:10541000F0E080000000000000000000000000003C
:10542000000000000000000000000000000000007C
:10543000000000000000000000000000000000006C
:105440000000000000000000000000000001070F45
:105450001F1F1F1F1F1F1F1F1F1F1F1F1F1F1F1F5C
:105460001F181818181818181818181818181818B5
:1054700018181818181818181818181818181818AC
:10548000181C0F07010000000000000000000000D1
:10549000000000000000000000000000000000000C
:1054A00000000000000000000000000000000000FC
:1054B00000000000000000000000000000000000EC
:1054C00000000000000000000000000000000000DC
:1054D00000000000000000000000000000000000CC
:1054E00000000000000000000000000000000000BC
:1054F00000000000000000000000000000000000AC
:10550000000000000000000000000000000000009B
:10551000000000000000000000000000000000008B
:10552000000000000000000000000000000000007B
:10553000000000000000000000000000000000006B
:10554000000000000000000000000000000000005B
:10555000000000000000000000000000000000004B
:10556000000000000000000000000000000000003B
:10557000000000000000000000000000000000002B
:10558000000000000000000000000000000000001B
:10559000000000000000000000000000000000000B
:1055A00000000000000000000000000000000000FB
:1055B00000000000000000000000000000000000EB
:1055C00000000000000000000000000000000000DB
:1055D00000000000000000000000000000000000CB
:1055E00000000000000000000000000000000000BB
:1055F0000000000000000000724000006852000837
:10560000000000000000000000000000000000009A
:10561000000000000000000000000000000000008A
:10562000000000000000000000000000000000007A
:10563000000000000000000000000000000000006A
:10564000000000000000000000000000000000005A
:10565000000000000000000000000000000000004A
:10566000000000000000000000000000000000003A
:10567000000000000000000000000000000000002A
:10568000000000000000000000000000000000001A
:10569000000000000000000000000000000000000A
:1056A00000000000000000000000000000000000FA
:1056B00000000000000000000000000000000000EA
:1056C00000000000000000000000000000000000DA
:1056D00000000000000000000000000000000000CA
:1056E00000000000000000000000000000000000BA
:1056F00000000000000000000000000000000000AA
:105700000000000000000000000000000000000099
:1057100000000000000000E0E0E0E00060F0F0E0E9
:105720000000000000000000000000000000000079
:105730000000000000000000000000000000000069
:105740000000000000000000000000000000000059
:105750000000000000000000000000000000000049
:105760000000000000000000000000000000000039
:1057700000000080E0F0F8F8F8F8F8F8F8F8F8F829
:10578000F8F8F8F8F8F8F8F8F81919191918181BB2
:105790001B1B181818181818181818181818181883
:1057A0001818181818181838F0E0800000000000C9
:1057B00000000000000000000000000000000000E9
:1057C00000000000000000000000000000000000D9
:1057D00000000000000000000000000000000000C9
:1057E000000000000001070F1F1F1F1F1F1F1F1FAA
:1057F0001F1F1F1F1F1F1F1F1F1F1F1818181818DC
:105800001818181818181818181818181818181818
:105810001818181818181818181C0F07010000007D
:105820000000000000000000000000000000000078
:105830000000000000000000000000000000000068
:105840000000000000000000000000000000000058
:105850000000000000000000000000000000000048
:105860000000000000000000000000000000000038
:105870000000000000000000000000000000000028
:105880000000000000000000000000000000000018
:105890000000000000000000000000000000000008
:1058A00000000000000000000000000000000000F8
:1058B00000000000000000000000000000000000E8
:1058C00000000000000000000000000000000000D8
:1058D00000000000000000000000000000000000C8
:1058E00000000000000000000000000000000000B8
:1058F00000000000000000000000000000000000A8
:105900000000000000000000000000000000000097
:105910000000000000000000000000000000000087
:105920000000000000000000000000000000000077
:105930000000000000000000000000000000000067
:105940000000000000000000000000000000000057
:105950000000000000000000000000000000000047
:105960000000000000000000000000000000000037
:105970000000000000000000000000000000000027
:105980000000000000000000000000000000000017
:1059900072400000005600080000000000000000F7
:1059A00000000000000000000000000000000000F7
:1059B00000000000000000000000000000000000E7
:1059C00000000000000000000000000000000000D7
:1059D00000000000000000000000000000000000C7
:1059E00000000000000000000000000000000000B7
:1059F00000000000000000000000000000000000A7
:105A00000000000000000000000000000000000096
:105A10000000000000000000000000000000000086
:105A20000000000000000000000000000000000076
:105A30000000000000000000000000000000000066
:105A40000000000000000000000000000000000056
:105A50000000000000000000000000000000000046
:105A60000000000000000000000000000000000036
:105A70000000000000000000000000000000000026
:105A80000000000000000000000000000000000016
:105A90000000000000000000000000000000000006
:105AA000000000000000000000000000000000E016
:105AB000E0E0C00060F0F0E0000000000000000046
:105AC00000000000000000000000000000000000D6
:105AD00000000000000000000000000000000000C6
